:100000000C9446000C945D000C945D000C945D0013
:100010000C945D000C945D000C945D000C945D00EC
:100020000C945D000C945D000C945D000C945D00DC
:100030000C945D000C945D000C945D000C945D00CC
:100040000C945D000C945D000C945D000C945D00BC
:100050000C945D000C945D000C945D000C945D00AC
:100060000C945D000C945D000C945D000C945D009C
:100070000C945D000C945D000C945D000C945D008C
:100080000C945D000C945D000C945D0011241FBE67
:10009000CFEFD0E4DEBFCDBF11E0A0E0B1E0E2E8F9
:1000A000F3E000E00BBF02C007900D92AE30B10745
:1000B000D9F70E94B3010C94BF010C940000CF93B8
:1000C000C82F8A3019F48DE00E945F008091C00033
:1000D00085FFFCCFC093C60080E090E0CF910895EB
:1000E000442349F021E030E002C0220F331F6A951B
:1000F000E2F7822B089521E030E002C0220F331F87
:100100006A95E2F720958223089521E030E002C04D
:10011000220F331F6A95E2F78223089540E050E0F2
:100120000CC000002F5F3F4F02C020E030E02730BE
:1001300063E03607B4F34F5F5F4F48175907ACF3DE
:10014000089598B19F7E98B98BB988B1806488B9B9
:10015000000088B18F7B88B982E090E00E948E0019
:10016000089581E00E94A1000895813120F4815812
:100170000E94A100089581550E94A100089584E67F
:1001800090E00E948E0088E30E94A10086E00E9419
:10019000A1008FE00E94A10081E00E94A1008AE0FE
:1001A00090E00E948E00089598B1906198B98BB943
:1001B00088B1806488B9000088B18F7B88B981E0FC
:1001C00090E00E948E000895EF92FF920F931F938C
:1001D000CF93DF93182FEB010E94B1000EC001E016
:1001E000010F812F0E94B5007E018FEFE81AF80AF7
:1001F00088810E94D400102FE70188818111EFCF00
:10020000DF91CF911F910F91FF90EF90089540E003
:1002100064E08FEF0E94700088B9000086B160E052
:1002200080950E948500811180C086B161E0809533
:100230000E94850081117BC086B162E080950E949A
:100240008500811176C086B163E080950E948500AB
:10025000811171C040E065E08FEF0E94700088B9A5
:10026000000086B160E080950E948500811165C024
:1002700086B161E080950E948500811160C086B1E1
:1002800062E080950E94850081115BC086B163E0C9
:1002900080950E948500811156C040E066E08FEF96
:1002A0000E94700088B9000086B160E080950E94CD
:1002B000850081114AC086B161E080950E94850069
:1002C000811145C086B162E080950E948500811150
:1002D00040C086B163E080950E94850081113BC0DB
:1002E00040E067E08FEF0E94700088B9000086B19F
:1002F00060E080950E94850081112FC086B161E089
:1003000080950E94850081112AC086B162E08095A7
:100310000E948500811125C086B163E080950E940E
:1003200085008823F9F084E4089581E3089584E347
:10033000089587E308958AE2089582E3089585E3A6
:10034000089588E3089580E3089583E3089586E39C
:10035000089589E3089583E2089581E4089582E48D
:10036000089583E408958FEF81B912B880EF87B9BB
:100370008FE088B90E940701805382B9FBCFF894BF
:02038000FFCFAD
:0E03820000000002000000005F00000000000C
:00000001FF
