:100000000C9446000C9465000C9465000C946500FB
:100010000C9465000C9465000C9465000C946500CC
:100020000C9465000C9465000C9465000C946500BC
:100030000C9465000C94B4000C9465000C9465005D
:100040000C9465000C9465000C9465000C945702A8
:100050000C9465000C9465000C9465000C9465008C
:100060000C9465000C9465000C9465000C9465007C
:100070000C9465000C9465000C9465000C9465006C
:100080000C9465000C9465000C94650011241FBE4F
:10009000CFEFD0E4DEBFCDBF11E0A0E0B1E0E6E2FB
:1000A000F5E000E00BBF02C007900D92A231B1074E
:1000B000D9F721E0A2E1B1E001C01D92AA31B20757
:1000C000E1F70E9466020C9491020C940000CF9319
:1000D000C82F8A3019F48DE00E9467008091C0001B
:1000E00085FFFCCFC093C60080E090E0CF910895DB
:1000F00060930E0170930F01809310019093110192
:100100006093150170931601809317019093180165
:1001100008958BE0809381008DE790E090938900B3
:100120008093880082E080936F0010928500109287
:10013000840080910E0190910F01A0911001B09167
:1001400011018093150190931601A0931701B093AC
:1001500018018FB780688FBF0895109281000895AD
:1001600081E08093190108951F920F920FB60F92AC
:1001700011240BB60F922F933F934F935F936F937E
:100180007F938F939F93AF93BF93EF93FF93809150
:10019000150190911601A0911701B09118010197D6
:1001A000A109B1098093150190931601A09317013D
:1001B000B0931801892B8A2B8B2B91F40E94B000ED
:1001C00080910E0190910F01A0911001B091110149
:1001D0008093150190931601A0931701B093180115
:1001E000FF91EF91BF91AF919F918F917F916F910F
:1001F0005F914F913F912F910F900BBE0F900FBECB
:100200000F901F901895442349F021E030E002C080
:10021000220F331F6A95E2F7822B089521E030E028
:1002200002C0220F331F6A95E2F7209582230895BA
:1002300021E030E002C0220F331F6A95E2F78223EB
:10024000089540E050E00CC000002F5F3F4F02C017
:1002500020E030E0273063E03607B4F34F5F5F4FB4
:1002600048175907ACF308959BB19F7B9BB988B998
:100270008BB180688BB900008BB18F778BB982E02E
:1002800090E00E942101089581E00E9434010895C8
:10029000813120F481580E943401089581550E94D3
:1002A0003401089584E690E00E94210188E30E94D1
:1002B000340186E00E9434018FE00E94340181E025
:1002C0000E9434018AE090E00E94210108959BB1D0
:1002D00090649BB988B98BB180688BB900008BB1F1
:1002E0008F778BB981E090E00E9421010895EF9211
:1002F000FF920F931F93CF93DF93182FEB010E9470
:1003000044010EC001E0010F812F0E9448017E01CF
:100310008FEFE81AF80A88810E946701102FE70121
:1003200088818111EFCFDF91CF911F910F91FF90C5
:10033000EF90089540E064E08FEF0E94030182B9DE
:10034000000080B160E080950E941801811180C09A
:1003500080B161E080950E94180181117BC080B15D
:1003600062E080950E941801811176C080B163E03F
:1003700080950E941801811171C040E065E08FEF07
:100380000E94030182B9000080B160E080950E9464
:100390001801811165C080B161E080950E9418014B
:1003A000811160C080B162E080950E9418018111C6
:1003B0005BC080B163E080950E941801811156C036
:1003C00040E066E08FEF0E94030182B9000080B137
:1003D00060E080950E94180181114AC080B161E0FF
:1003E00080950E941801811145C080B162E080951E
:1003F0000E941801811140C080B163E080950E9485
:10040000180181113BC040E067E08FEF0E940301BB
:1004100082B9000080B160E080950E9418018111CE
:100420002FC080B161E080950E94180181112AC01F
:1004300080B162E080950E941801811125C080B1D1
:1004400063E080950E9418018823F9F084E4089500
:1004500081E3089584E3089587E308958AE2089587
:1004600082E3089585E3089588E3089580E308957D
:1004700083E3089586E3089589E3089583E2089568
:1004800081E4089582E4089583E408958FEB84B9AC
:1004900015B881E58CBD08958EBD0DB407FEFDCF66
:1004A000089580E484B915B88CBD789408951F929E
:1004B0000F920FB60F9211248F938EB58093140173
:1004C0008F910F900FBE0F901F9018958FEF81B9ED
:1004D00012B884B915B887B918B88AB91BB80E9480
:1004E00052010E9444010E9451020E94890064E668
:1004F00070E080E090E00E9478008091140181110A
:1005000003C01092130103C081E080931301809116
:10051000130182B9809119018823E1F31092190126
:06052000ECCFF894FFCFC0
:10052600000000020000000067000000000001005B
:020536000000C3
:00000001FF
