:100000000C9446000C9465000C9465000C946500FB
:100010000C9465000C9465000C9465000C946500CC
:100020000C9465000C9465000C9465000C946500BC
:100030000C9465000C94B4000C9465000C9465005D
:100040000C9465000C9465000C9465000C945E02A1
:100050000C9465000C9465000C9465000C9465008C
:100060000C9465000C9465000C9465000C9465007C
:100070000C9465000C9465000C9465000C9465006C
:100080000C9465000C9465000C94650011241FBE4F
:10009000CFEFD0E4DEBFCDBF11E0A0E0B1E0E2EEF3
:1000A000F6E000E00BBF02C007900D92AE38B1073A
:1000B000D9F721E0AEE8B1E001C01D92A939B2073D
:1000C000E1F70E94CC020C946F030C940000CF93D4
:1000D000C82F8A3019F48DE00E9467008091C0001B
:1000E00085FFFCCFC093C60080E090E0CF910895DB
:1000F000609314017093150180931601909317017A
:100100006093940170939501809396019093970169
:1001100008958BE0809381008DE790E090938900B3
:100120008093880082E080936F0010928500109287
:1001300084008091140190911501A0911601B09155
:1001400017018093940190939501A0939601B09329
:1001500097018FB780688FBF08951092810008952E
:1001600081E08093980108951F920F920FB60F922D
:1001700011240BB60F922F933F934F935F936F937E
:100180007F938F939F93AF93BF93EF93FF93809150
:10019000940190919501A0919601B09197010197DA
:1001A000A109B1098093940190939501A0939601C0
:1001B000B0939701892B8A2B8B2B91F40E94B0006E
:1001C0008091140190911501A0911601B091170131
:1001D0008093940190939501A0939601B093970119
:1001E000FF91EF91BF91AF919F918F917F916F910F
:1001F0005F914F913F912F910F900BBE0F900FBECB
:100200000F901F901895442349F021E030E002C080
:10021000220F331F6A95E2F7822B089521E030E028
:1002200002C0220F331F6A95E2F7209582230895BA
:1002300021E030E002C0220F331F6A95E2F78223EB
:10024000089540E050E00CC000002F5F3F4F02C017
:1002500020E030E0273063E03607B4F34F5F5F4FB4
:1002600048175907ACF308959BB19F7B9BB988B998
:100270008BB180688BB900008BB18F778BB982E02E
:1002800090E00E942101089581E00E9434010895C8
:10029000813120F481580E943401089581550E94D3
:1002A0003401089584E690E00E94210188E30E94D1
:1002B000340186E00E9434018FE00E94340181E025
:1002C0000E9434018AE090E00E94210108959BB1D0
:1002D00090649BB988B98BB180688BB900008BB1F1
:1002E0008F778BB981E090E00E9421010895EF9211
:1002F000FF920F931F93CF93DF93182FEB010E9470
:1003000044010EC001E0010F812F0E9448017E01CF
:100310008FEFE81AF80A88810E946701102FE70121
:1003200088818111EFCFDF91CF911F910F91FF90C5
:10033000EF90089540E064E08FEF0E94030182B9DE
:10034000000080B160E080950E941801811180C09A
:1003500080B161E080950E94180181117BC080B15D
:1003600062E080950E941801811176C080B163E03F
:1003700080950E941801811171C040E065E08FEF07
:100380000E94030182B9000080B160E080950E9464
:100390001801811165C080B161E080950E9418014B
:1003A000811160C080B162E080950E9418018111C6
:1003B0005BC080B163E080950E941801811156C036
:1003C00040E066E08FEF0E94030182B9000080B137
:1003D00060E080950E94180181114AC080B161E0FF
:1003E00080950E941801811145C080B162E080951E
:1003F0000E941801811140C080B163E080950E9485
:10040000180181113BC040E067E08FEF0E940301BB
:1004100082B9000080B160E080950E9418018111CE
:100420002FC080B161E080950E94180181112AC01F
:1004300080B162E080950E941801811125C080B1D1
:1004400063E080950E9418018823F9F084E4089500
:1004500081E3089584E3089587E308958AE2089587
:1004600082E3089585E3089588E3089580E308957D
:1004700083E3089586E3089589E3089583E2089568
:1004800081E4089582E4089583E4089580EA84B9BC
:1004900081E58CBD08958EBD85B18D7F85B90DB484
:1004A00007FEFDCF85B1826085B9089580E484B9E7
:1004B00080E185B980EC8CBD789408951F920F92ED
:1004C0000FB60F9211248F938EB5809393018F9165
:1004D0000F900FBE0F901F9018950E949A018134C3
:1004E00049F0823451F0833459F0843461F480E36C
:1004F00091E0089588E191E0089580E291E0089507
:1005000088E291E0089588E391E00895813349F00D
:10051000823351F0833359F0843361F485E591E0FF
:10052000089580E491E0089587E491E008958EE4D1
:1005300091E008958CE591E00895873339F0883390
:1005400041F0893349F48FE691E0089583E691E024
:10055000089589E691E0089585E791E00895FF9276
:100560000F931F93CF93DF93EB010DC0FF24F39400
:10057000F80E0E9448018E010F5F1F4F88810E9474
:1005800067018F2DE80198819111F0CFDF91CF9114
:100590001F910F91FF90089580EF81B98FE082B98C
:1005A0008FEF87B918B88AB91BB80E9452010E9410
:1005B00044010E9446020E94890064E670E080E0E7
:1005C00090E00E947800609104017091050181E043
:1005D0000E94AF0260910201709103018AE00E94C3
:1005E000AF02609100017091010181E10E94AF02B0
:1005F00080B1809392010E949A0180939101882397
:1006000009F463C09FEB980F9430F8F40E946D02D8
:100610009093050180930401BC0181E00E94AF0228
:1006200080918E0190918F01892B09F44EC06BE768
:1006300071E081E00E9477018FEF0E944B0268E831
:1006400071E081E00E94770140C09FEC980F9430E8
:10065000A0F40E9486029093030180930201BC01E2
:100660008AE00E94AF0280918E0190918F01892BC8
:1006700061F18FEF0E944B0228C099EC980F9330E4
:1006800058F50E949D029093010180930001BC01E6
:1006900081E10E94AF0280919101873331F421E022
:1006A00030E030938F0120938E01883331F422E0C3
:1006B00030E030938F0120938E01893331F483E051
:1006C00090E090938F0180938E0180919801882310
:1006D000E1F3109298018CCF81E090E00895F894B6
:0206E000FFCF4A
:1006E20075015C0138010000000200000000670093
:1006F20000000000010000005074726E3A203100C8
:100702005074726E3A2032005074726E3A20330086
:100712005074726E3A2034005074726E3A20300077
:100722005370643A2031005370643A20320053709F
:10073200643A2033005370643A2034005370643AB0
:1007420020300075433A20310075433A203200755B
:10075200433A20330075433A2030005472616E737D
:0E0762006D697474696E6700446F6E65000007
:00000001FF
